Method,scenario,Response,Request
eth_estimateGas,Proper request,"[{""error"":{""code"":3,""data"":""0x"",""message"":""execution reverted""},""id"":1,""jsonrpc"":""2.0""}]","{""jsonrpc"":""2.0"",""id"":1,""method"":""eth_estimateGas"",""params"":[{""data"":""0x6057361d0002c6c8f4b6852b7fe72b4cbf8d304a8b4f8b1eec216b77e1284cc4"",""from"":""0x51E3B84966c042C278dEb61564C106B6b82aF792"",""to"":""0xcBfa98786edf0BE78324F4C0e7f06926b7F8448A""}]}"
eth_estimateGas,Invalid contract,"[{""id"":3,""jsonrpc"":""2.0"",""result"":""0x5839""}]","{""jsonrpc"":""2.0"",""id"":3,""method"":""eth_estimateGas"",""params"":[{""data"":""0x6057361d0002c6c8f4b6852b7fe72b4cbf8d304a8b4f8b1eec216b77e1284cc4"",""from"":""0x51E3B84966c042C278dEb61564C106B6b82aF792"",""to"":""0x0baEAd25fe0346B76C73e84c083bb503c14309F1""}]}"
eth_estimateGas,Invalid params types,"[{""error"":{""code"":-32602,""message"":""invalid argument 0: json: cannot unmarshal string into Go value of type ethapi.TransactionArgs""},""id"":4,""jsonrpc"":""2.0""}]","{""jsonrpc"":""2.0"",""id"":4,""method"":""eth_estimateGas"",""params"":[""latest""]}"
eth_wrongEstimateGas,Incorrect method name,"[{""error"":{""code"":-32601,""message"":""the method eth_wrongEstimateGas does not exist/is not available""},""id"":5,""jsonrpc"":""2.0""}]","{""jsonrpc"":""2.0"",""id"":5,""method"":""eth_wrongEstimateGas"",""params"":[{""data"":""0x6057361d0002c6c8f4b6852b7fe72b4cbf8d304a8b4f8b1eec216b77e1284cc4"",""from"":""0x51E3B84966c042C278dEb61564C106B6b82aF792"",""to"":""0xcBfa98786edf0BE78324F4C0e7f06926b7F8448A""}]}"
eth_estimateGas,Invalid 1st argument,"[{""error"":{""code"":-32602,""message"":""invalid argument 0: hex string has length 4, want 40 for common.Address""},""id"":6,""jsonrpc"":""2.0""}]","{""jsonrpc"":""2.0"",""id"":6,""method"":""eth_estimateGas"",""params"":[{""to"":""0x1234""}]}"
eth_estimateGas,Invalid data field,"[{""error"":{""code"":-32602,""message"":""invalid argument 0: json: cannot unmarshal invalid hex string into Go struct field TransactionArgs.data of type hexutil.Bytes""},""id"":7,""jsonrpc"":""2.0""}]","{""jsonrpc"":""2.0"",""id"":7,""method"":""eth_estimateGas"",""params"":[{""data"":""0x123invalid"",""to"":""0x742d35Cc6634C0532925a3b844Bc454e4438f44e""}]}"
eth_estimateGas,Missing from field,"[{""id"":8,""jsonrpc"":""2.0"",""result"":""0x534e""}]","{""jsonrpc"":""2.0"",""id"":8,""method"":""eth_estimateGas"",""params"":[{""data"":""0x12345678"",""to"":""0x742d35Cc6634C0532925a3b844Bc454e4438f44e""}]}"
eth_sendRawTransaction,Proper request,"[{""id"":1,""jsonrpc"":""2.0"",""result"":""0xac6235c6fa65c7bf9e5803e174009c130f7becee79db0e25589022115091ece3""}]","[{""jsonrpc"":""2.0"",""id"":1,""method"":""eth_sendRawTransaction"",""params"":[""0x02f89182053903847735940085026f274f8982b30b94cbfa98786edf0be78324f4c0e7f06926b7f8448a80a46057361d0000000000000000000000000000000000000000000000000000000000000014c001a050f46dac874b57322ab8418e6668d218242047c4ce455d6d97baf8ae23897109a048d43346f51535a7e9554eb6d0676383d593088160bd592a82ed384e3dcc05b8""]}]"
eth_wrongSendRawTransaction,UseInvalidFunction,"[{""error"":{""code"":-32601,""message"":""the method eth_wrongSendRawTransaction does not exist/is not available""},""id"":3,""jsonrpc"":""2.0""}]","[{""jsonrpc"":""2.0"",""id"":3,""method"":""eth_wrongSendRawTransaction"",""params"":[""0x02f89182053904847735940085026becf5af82652794cbfa98786edf0be78324f4c0e7f06926b7f8448a80a4f53710930000000000000000000000000000000000000000000000000000000000000014c080a0abf16787639bde72a8efedf2226ef731e03fb952fb707f4c369a225703e98407a056dc76c3feb64a3e3c28a5c1a28e05ec417db16afed23a82d0917206f626d13d""]}]"
eth_sendRawTransaction,NONCE_TOO_LOW,"[{""error"":{""code"":-32000,""message"":""nonce too low: next nonce 4, tx nonce 0""},""id"":4,""jsonrpc"":""2.0""}]","[{""jsonrpc"":""2.0"",""id"":4,""method"":""eth_sendRawTransaction"",""params"":[""0x02f89182053980847735940085026becf5af82652794cbfa98786edf0be78324f4c0e7f06926b7f8448a80a46057361d0000000000000000000000000000000000000000000000000000000000000014c080a0f76531584bb23b3c4738ba2734e5f51b3d5f4a3199f0df577bb9e9d99524a09da07182654d3358245df1c8c35c282fbeebe24dcb79ec084a160407206c43f71cee""]}]"
eth_sendRawTransaction,NONCE_TOO_HIGH,"[{""id"":5,""jsonrpc"":""2.0"",""result"":""0xb328712e0e09726a675a7c3e272eab2d257b59f28e04f89346aa75de94af6572""}]","[{""jsonrpc"":""2.0"",""id"":5,""method"":""eth_sendRawTransaction"",""params"":[""0x02f89182053968847735940085026becf5af82652794cbfa98786edf0be78324f4c0e7f06926b7f8448a80a46057361d0000000000000000000000000000000000000000000000000000000000000014c001a005fd2176a0ebd18faf3a129ffb4bae1b5abc8dd851c36b28a402317e290b274ca056b1e713395c0858be069e9992de8ef8ba1ddb5aab52546fcd29a92878fbc79f""]}]"
eth_sendRawTransaction,OVERSIZED_DATA,"[{""error"":{""code"":-32000,""message"":""oversized data: transaction size 1048693, limit 131072""},""id"":9,""jsonrpc"":""2.0""}]","[{""jsonrpc"":""2.0"",""id"":9,""method"":""eth_sendRawTransaction"",""params"":[""0x02fa1000708205390484773594008502604edaea82652794cbfa98786edf0be78324f4c0e7f06926b7f8448a80ba10000000000000000000000000000000000000000000000000000000000000000000000000000000000000000000000000000000000000000000000000000000000000000000000000000000000000000000000000000000000000000000000000000000000000000000000000000000000000000000000000000000000000000000000000000000000000000000000000000000000000000000000000000000000000000000000000000000000000000000000000000000000000000000000000000000000000000000000000000000000000000000000000000000000000000000000000000000000000000000000000000000000000000000000000000000000000000000000000000000000000000000000000000000000000000000000000000000000000000000000000000000000000000000000000000000000000000000000000000000000000000000000000000000000000000000000000000000000000000000000000000000000000000000000000000000000000000000000000000000000000000000000000000000000000000000000000000000000000000000..."
eth_sendRawTransaction,GAS_PRICE_TOO_LOW-Legacy,"[{""error"":{""code"":-32000,""message"":""transaction gas price below minimum: gas tip cap 0, minimum needed 1""},""id"":11,""jsonrpc"":""2.0""}]","[{""jsonrpc"":""2.0"",""id"":11,""method"":""eth_sendRawTransaction"",""params"":[""0xf885048082652794cbfa98786edf0be78324f4c0e7f06926b7f8448a80a46057361d0000000000000000000000000000000000000000000000000000000000000014820a95a0637a8320866a4d4ee01c1c45647e986c5ae47473e3207a5489053cd5c4c41610a00a84933f6d876a667423ed97109fcf3956b9d516c58100d494af8c724dd8d348""]}]"
eth_sendRawTransaction,GAS_PRICE_TOO_LOW-Dynamic,"[{""error"":{""code"":-32000,""message"":""transaction gas price below minimum: gas tip cap 0, minimum needed 1""},""id"":11,""jsonrpc"":""2.0""}]","[{""jsonrpc"":""2.0"",""id"":11,""method"":""eth_sendRawTransaction"",""params"":[""0x02f88882053904808082652794cbfa98786edf0be78324f4c0e7f06926b7f8448a80a46057361d0000000000000000000000000000000000000000000000000000000000000014c080a02317c998020e466845e3abcc56395df3b07bf2752cbe892311c39fd559a5ddc5a02b8afdba24e817d19cdefafca483c2a591a874a6c30fdebf29510f0b82f985e3""]}]"
eth_sendRawTransaction,FEE_CAP_EXCEEDED,"[{""error"":{""code"":-32000,""message"":""tx fee (3.20 ether) exceeds the configured cap (1.00 ether)""},""id"":12,""jsonrpc"":""2.0""}]","[{""jsonrpc"":""2.0"",""id"":12,""method"":""eth_sendRawTransaction"",""params"":[""0xf88b04852e90edd00083f4240094cbfa98786edf0be78324f4c0e7f06926b7f8448a80a46057361d0000000000000000000000000000000000000000000000000000000000000014820a96a0fa50009b40a8eb9597775e94475bb243025a4df289062116da51ad6f06b837bba0749f6cac616fc1a8b5e27a31c85ffeccbb0299d5597db8e1495e103ac7492098""]}]"
eth_sendRawTransaction,BLOCK_GAS_LIMIT_EXCEEDED,"[{""error"":{""code"":-32000,""message"":""exceeds block gas limit""},""id"":10,""jsonrpc"":""2.0""}]","[{""jsonrpc"":""2.0"",""id"":10,""method"":""eth_sendRawTransaction"",""params"":[""0x02f89382053904847735940085025ec67c0d8402bde78094cbfa98786edf0be78324f4c0e7f06926b7f8448a80a46057361d0000000000000000000000000000000000000000000000000000000000000014c080a036e38217926741ee3f7838bc56f586d395c4361e0000b17fb026a4ab7b332bcea074e8a1490a9e23c9e8505ec3320926d2283796ef97e6f1d2687ad6ff7f173ba3""]}]"
eth_sendRawTransaction,TRANSACTION_GAS_LIMIT_EXCEEDED: GasLimitTooHigh,"[{""error"":{""code"":-32000,""message"":""exceeds block gas limit""},""id"":10,""jsonrpc"":""2.0""}]","[{""jsonrpc"":""2.0"",""id"":10,""method"":""eth_sendRawTransaction"",""params"":[""0x02f89382053904847735940085025ec67c0d840100000194cbfa98786edf0be78324f4c0e7f06926b7f8448a80a46057361d0000000000000000000000000000000000000000000000000000000000000014c080a0eefae4581f0b791e154dd114c8b11d6d9c8b6fd05b915d0b07fd7f750c3ef057a00ccf89a0ea32b0ab735cacad62315577bac1509dea8a9586fb80dd1e0989c3b7""]}]"
eth_sendRawTransaction,GAS_TOO_LOW - Intrinsic gas too low,"[{""error"":{""code"":-32000,""message"":""intrinsic gas too low: gas 20000, minimum needed 21204""},""id"":13,""jsonrpc"":""2.0""}]","[{""jsonrpc"":""2.0"",""id"":13,""method"":""eth_sendRawTransaction"",""params"":[""0x02f89182053904847735940085025ec67c0d824e2094cbfa98786edf0be78324f4c0e7f06926b7f8448a80a46057361d0000000000000000000000000000000000000000000000000000000000000014c080a045904efe55e57d4486d141e3d595a505e08bba23ab84667dbe24c23a78e336f6a02d6eec13087484a3416b4f6f9eb8b1a0e263cf9010ea556e3fbe10715b09c524""]}]"
eth_sendRawTransaction,OUT_OF_GAS - Transaction runs out of gas,"[{""error"":{""code"":-32000,""message"":""insufficient gas for floor data gas cost: gas 21204, minimum needed 21510""},""id"":14,""jsonrpc"":""2.0""}]","[{""jsonrpc"":""2.0"",""id"":14,""method"":""eth_sendRawTransaction"",""params"":[""0x02f89182053904847735940085025ec67c0d8252d494cbfa98786edf0be78324f4c0e7f06926b7f8448a80a46057361d0000000000000000000000000000000000000000000000000000000000000014c001a0a32ea9741ca5e93d2194f2c4803d268ecc0e0d6ac49869adf3f0884c59ee9fbda01860c84636736f257001cb1ecc4ab4d0c17b68c3ef37134cf1c6841ce1b06013""]}]"
eth_sendRawTransaction,TipAboveFeeCap - max priority fee per gas higher than max fee per gas,"[{""error"":{""code"":-32000,""message"":""max priority fee per gas higher than max fee per gas""},""id"":17,""jsonrpc"":""2.0""}]","[{""jsonrpc"":""2.0"",""id"":17,""method"":""eth_sendRawTransaction"",""params"":[""0x02f88c8205390484773594000a82652794cbfa98786edf0be78324f4c0e7f06926b7f8448a80a46057361d0000000000000000000000000000000000000000000000000000000000000014c080a09498a48e4cda1c8c54816e44320d4d31cd983ab2d4ff8c8b5fbab10ff3c4f452a07bc9913d4e61d4463daf0ecb7fd6a10089198508aabf779974fd52f0af719eb9""]}]"
eth_sendRawTransaction,INVALID_OPCODE,"[{""id"":20,""jsonrpc"":""2.0"",""result"":""0xcf5ecabc08a989b14b91d5df52706aa64e171e28f94761542ba7eb937e66d515""}], PreSend Error: [{""jsonrpc"":""2.0"",""id"":1,""error"":{""code"":-32000,""message"":""invalid opcode: INVALID""}}]","[{""jsonrpc"":""2.0"",""id"":20,""method"":""eth_sendRawTransaction"",""params"":[""0x02f87182053904847735940085025ec67c0d8265279485be6b6ff4e61c3beb0fb73a2a9dc3a80e279c868084b9d1e5aac001a0497235a0e61fb9e43117813a08854e5728ad0884cbb215f194afeddf850990a7a003ba9653dc7df676d0d59d63c9d8545b5c34ee29c536cea36fcfd996c982513a""]}]"
eth_sendRawTransaction,REVERT_OPCODE,"[{""id"":20,""jsonrpc"":""2.0"",""result"":""0x06e11f467d50d99ae771ad35c9bc41dfb2880448480a5ace9dadbd0d11fbe51f""}], PreSend Error: [{""jsonrpc"":""2.0"",""id"":1,""error"":{""code"":3,""message"":""execution reverted"",""data"":""0x""}}]","[{""jsonrpc"":""2.0"",""id"":20,""method"":""eth_sendRawTransaction"",""params"":[""0x02f87182053905847735940085025d6f290c8265279485be6b6ff4e61c3beb0fb73a2a9dc3a80e279c8680846d3d1416c001a072188eccc223a164193082713d4aef2279d810851f84883fcb9f546616ab4129a06feb8381f33699078152dad4905827047bb70282ed63607e1f9821f95db36e9c""]}]"
eth_sendRawTransaction,INSUFFICIENT_FUNDS - Not enough funds for gas * price + value,"[{""error"":{""code"":-32000,""message"":""insufficient funds for gas * price + value: balance 99999337661141535656, tx cost 100999600182076485066, overshot 1000262520934949410""},""id"":20,""jsonrpc"":""2.0""}]","[{""jsonrpc"":""2.0"",""id"":20,""method"":""eth_sendRawTransaction"",""params"":[""0x02f89a82053906847735940085025c44160e82652794cbfa98786edf0be78324f4c0e7f06926b7f8448a890579a5ba7c4212cba8a46057361d0000000000000000000000000000000000000000000000000000000000000014c080a07a7d5fc29ea8fe662fd882b0a08e5cb4a9650bf514444f45381e8f53320dd7f6a0086a62e78a38b231d56f7296f6ffc87ab29594d5edc7cf484ce0da2655edbee5""]}]"
eth_sendRawTransaction,REPLACEMENT_TRANSACTION_UNDERPRICED - Replacement without price bump,"[{""id"":21,""jsonrpc"":""2.0"",""result"":""0x413f64fe55c908016cb3a6fc22c231eed8d53b5fbf7ddcd8b5d7fef895bc55ea""},{""error"":{""code"":-32000,""message"":""replacement transaction underpriced""},""id"":21,""jsonrpc"":""2.0""}]","[{""jsonrpc"":""2.0"",""id"":21,""method"":""eth_sendRawTransaction"",""params"":[""0x02f89182053906847735940085025c44160e82652794cbfa98786edf0be78324f4c0e7f06926b7f8448a80a46057361d0000000000000000000000000000000000000000000000000000000000000014c001a0489a4a22d76ddccc5c432f30d020b32cfb1b826b72432a19d848a726fba02843a077ae52eb0ac567218043a3db94e2e1aa9212b039835ab660b45522ff9aea7c8b""]},{""jsonrpc"":""2.0"",""id"":21,""method"":""eth_sendRawTransaction"",""params"":[""0x02f89382053906847735940085025c44160e82652794cbfa98786edf0be78324f4c0e7f06926b7f8448a8203e8a46057361d0000000000000000000000000000000000000000000000000000000000000014c001a0e0718652135692bb2ef6a74672cdba5a7b8e6adc2cc6ed6e8e0ce3a24873fd57a03fd58fbe074e4d52c0e5317491fd52faadfe4e35f89238921bbe83af80835df4""]}]"
eth_sendRawTransaction,ALREADY_KNOWN,"[{""id"":22,""jsonrpc"":""2.0"",""result"":""0x5eb74c1e63b1ac318904477a202e03d9b14790b3bfdd268749ab3f54fd5f4232""},{""error"":{""code"":-32000,""message"":""already known""},""id"":22,""jsonrpc"":""2.0""}]","[{""jsonrpc"":""2.0"",""id"":22,""method"":""eth_sendRawTransaction"",""params"":[""0x02f89182053907847735940085025b3e048282652794cbfa98786edf0be78324f4c0e7f06926b7f8448a80a46057361d0000000000000000000000000000000000000000000000000000000000000014c001a0c74f683cd5a63e0f2cb8172286b614ea0d22ce8606edebf880a6cbee6c6b8e5aa018d584aff726c95a7c191e9c72a2753c2f38afda8e5b55710dd2f8341fd8a876""]},{""jsonrpc"":""2.0"",""id"":22,""method"":""eth_sendRawTransaction"",""params"":[""0x02f89182053907847735940085025b3e048282652794cbfa98786edf0be78324f4c0e7f06926b7f8448a80a46057361d0000000000000000000000000000000000000000000000000000000000000014c001a0c74f683cd5a63e0f2cb8172286b614ea0d22ce8606edebf880a6cbee6c6b8e5aa018d584aff726c95a7c191e9c72a2753c2f38afda8e5b55710dd2f8341fd8a876""]}]"
