Testing Network: Sepolia
RPC URL: https://ethereum-sepolia-rpc.publicnode.com
=======================================================

Running Test Suite: Contract Interaction Tests
Description: 

[1/2] Running Test: eth_estimateGas
-------------------------------------------------------
Scenario: Proper request  - Request: {"jsonrpc":"2.0","id":1,"method":"eth_estimateGas","params":[{"data":"0x6057361d0002c6c8f4b6852b7fe72b4cbf8d304a8b4f8b1eec216b77e1284cc4","from":"0x51E3B84966c042C278dEb61564C106B6b82aF792","to":"0x3a059AC08A7A27e972DBDD00E4595742471137d8"}]}
Response: [{"error":{"code":3,"data":"0x","message":"execution reverted"},"id":1,"jsonrpc":"2.0"}]
Scenario: Invalid contract  - Request: {"jsonrpc":"2.0","id":3,"method":"eth_estimateGas","params":[{"data":"0x6057361d0002c6c8f4b6852b7fe72b4cbf8d304a8b4f8b1eec216b77e1284cc4","from":"0x51E3B84966c042C278dEb61564C106B6b82aF792","to":"0x0baEAd25fe0346B76C73e84c083bb503c14309F1"}]}
Response: [{"id":3,"jsonrpc":"2.0","result":"0x5839"}]
Scenario: Invalid params types  - Request: {"jsonrpc":"2.0","id":4,"method":"eth_estimateGas","params":["latest"]}
Response: [{"error":{"code":-32602,"message":"invalid argument 0: json: cannot unmarshal string into Go value of type ethapi.TransactionArgs"},"id":4,"jsonrpc":"2.0"}]
Scenario: Incorrect method name  - Request: {"jsonrpc":"2.0","id":5,"method":"eth_wrongEstimateGas","params":[{"data":"0x6057361d0002c6c8f4b6852b7fe72b4cbf8d304a8b4f8b1eec216b77e1284cc4","from":"0x51E3B84966c042C278dEb61564C106B6b82aF792","to":"0x3a059AC08A7A27e972DBDD00E4595742471137d8"}]}
Response: [{"error":{"code":-32601,"message":"the method eth_wrongEstimateGas does not exist/is not available"},"id":5,"jsonrpc":"2.0"}]
Scenario: Invalid 1st argument  - Request: {"jsonrpc":"2.0","id":6,"method":"eth_estimateGas","params":[{"to":"0x1234"}]}
Response: [{"error":{"code":-32602,"message":"invalid argument 0: hex string has length 4, want 40 for common.Address"},"id":6,"jsonrpc":"2.0"}]
Scenario: Invalid data field  - Request: {"jsonrpc":"2.0","id":7,"method":"eth_estimateGas","params":[{"data":"0x123invalid","to":"0x742d35Cc6634C0532925a3b844Bc454e4438f44e"}]}
Response: [{"error":{"code":-32602,"message":"invalid argument 0: json: cannot unmarshal invalid hex string into Go struct field TransactionArgs.data of type hexutil.Bytes"},"id":7,"jsonrpc":"2.0"}]
Scenario: Missing from field  - Request: {"jsonrpc":"2.0","id":8,"method":"eth_estimateGas","params":[{"data":"0x12345678","to":"0x742d35Cc6634C0532925a3b844Bc454e4438f44e"}]}
Response: [{"id":8,"jsonrpc":"2.0","result":"0x534e"}]
-------------------------------------------------------

[2/2] Running Test: eth_sendRawTransaction
-------------------------------------------------------
Scenario: Proper request  - Request: [{"jsonrpc":"2.0","id":1,"method":"eth_sendRawTransaction","params":["0x02f89283aa36a71f84773594008502540be409826527943a059ac08a7a27e972dbdd00e4595742471137d880a46057361d0000000000000000000000000000000000000000000000000000000000000014c001a0edddaaa8e3b3e74cf7dee87a839c7fb1eea1cf6cec9e3e41be5cff5ce24929cba075003478cb9ae7ed78e382a99c6fd588c37d69234a3faab4f68595d0eabe6618"]}]
Response: [{"id":1,"jsonrpc":"2.0","result":"0xe15129fcab8a6cc451286bce708bc979fab586ae6f833a413fb300aee1bc15f8"}]

Scenario: UseInvalidFunction  - Request: [{"jsonrpc":"2.0","id":3,"method":"eth_wrongSendRawTransaction","params":["0x02f89283aa36a71f84773594008502540be409826527943a059ac08a7a27e972dbdd00e4595742471137d880a4f53710930000000000000000000000000000000000000000000000000000000000000014c080a0b3126cba3c6cdc020c38bb880eec4d436fb362d1b2bc14665e2a5034122ce428a037af23c29925eb5ba27e7e914e019d0290b50e059bd4b5bc065012d3f86780eb"]}]
Response: [{"error":{"code":-32601,"message":"the method eth_wrongSendRawTransaction does not exist/is not available"},"id":3,"jsonrpc":"2.0"}]

Scenario: NONCE_TOO_LOW  - Request: [{"jsonrpc":"2.0","id":4,"method":"eth_sendRawTransaction","params":["0x02f89283aa36a78084773594008502540be409826527943a059ac08a7a27e972dbdd00e4595742471137d880a46057361d0000000000000000000000000000000000000000000000000000000000000014c080a07b1ce6f319c9ed4ce0565479025b8c75ae536b0206f8d1a8335aaaee1d001e39a03db4db4ef333e3ea832c2810b16c2f4472ee23bba8cae87d572c3be1aa5af313"]}]
Response: [{"error":{"code":-32000,"message":"nonce too low: next nonce 21, tx nonce 0"},"id":4,"jsonrpc":"2.0"}]

Scenario: NONCE_TOO_HIGH  - Request: [{"jsonrpc":"2.0","id":5,"method":"eth_sendRawTransaction","params":["0x02f89483aa36a782273084773594008502540be409826527943a059ac08a7a27e972dbdd00e4595742471137d880a46057361d0000000000000000000000000000000000000000000000000000000000000014c001a0ec27280926b5229c3b8fde1f049c6769c558f29a16fc24f4d159400892361df5a072b34e1e263720807223565f85095973bc64c45e0a8ba79bce51f4e07d5485f2"]}]
Response: [{"id":5,"jsonrpc":"2.0","result":"0x650280aa92a0bc3f4212d80feb9f0ea6ade56b12123af531935339734ed63c3f"}]

Scenario: OVERSIZED_DATA  - Request: [{"jsonrpc":"2.0","id":9,"method":"eth_sendRawTransaction","params":["0x02fa10007183aa36a72084773594008502540be409826527943a059ac08a7a27e972dbdd00e4595742471137d880ba100000000000000000000000000000000000000000000000000000000000000000000000000000000000000000000000000000000000000000000000000000000000000000000000000000000000000000000000000000000000000000000000000000000000000000000000000000000000000000000000000000000000000000000000000000000000000000000000000000000000000000000000000000000000000000000000000000000000000000000000000000000000000000000000000000000000000000000000000000000000000000000000000000000000000000000000000000000000000000000000000000000000000000000000000000000000000000000000000000000000000000000000000000000000000000000000000000000000000000000000000000000000000000000000000000000000000000000000000000000000000000000000000000000000000000000000000000000000000000000000000000000000000000000000000000000000000000000000000000000000000000000000000000000000000000000000000000000000000000...
Response: {"code":-32601,"error":"Request body size limit reached. To remove restrictions, order a dedicated full node here: https://www.allnodes.com/eth/host","id":-1,"jsonrpc":"2.0"}

Scenario: BLOCK_GAS_LIMIT_EXCEEDED  - Request: [{"jsonrpc":"2.0","id":10,"method":"eth_sendRawTransaction","params":["0x02f89483aa36a72084773594008502540be4098402bde780943a059ac08a7a27e972dbdd00e4595742471137d880a46057361d0000000000000000000000000000000000000000000000000000000000000014c001a0b644dd3fcf1947c2a3e4aa0c007cc6d50a655264dc8abbb32480100c01ed9ec7a05ee917df055f169341f837243ab01c8320a7d3ec6819a2997e1a6c43b2f68780"]}]
Response: [{"error":{"code":-32000,"message":"transaction gas limit too high (cap: 16777216, tx: 46000000)"},"id":10,"jsonrpc":"2.0"}]

Scenario: TRANSACTION_GAS_LIMIT_EXCEEDED: GasLimitTooHigh  - Request: [{"jsonrpc":"2.0","id":10,"method":"eth_sendRawTransaction","params":["0x02f89483aa36a72084773594008502540be4098401000001943a059ac08a7a27e972dbdd00e4595742471137d880a46057361d0000000000000000000000000000000000000000000000000000000000000014c080a0d56e3dbd4641ccaa0f8cb72cf90b231de8bfbd1a1eb58bf35b9ebbb088e3bb7da079d3b6697bb7968a55e77f2fab72c43e302d771bdb1b0a2d30309a061ec9fb14"]}]
Response: [{"error":{"code":-32000,"message":"transaction gas limit too high (cap: 16777216, tx: 16777217)"},"id":10,"jsonrpc":"2.0"}]

Scenario: GAS_PRICE_TOO_LOW-Legacy  - Request: [{"jsonrpc":"2.0","id":11,"method":"eth_sendRawTransaction","params":["0xf8872080826527943a059ac08a7a27e972dbdd00e4595742471137d880a46057361d00000000000000000000000000000000000000000000000000000000000000148401546d71a07941097eaac95ae2ada27b48625c4f09da2e1a94142903f54aecf2c28b68f7b0a0227307dd98a0fd12b697458e5789d89d38d5a034bbcafdde843abe7705a5cdaf"]}]
Response: [{"error":{"code":-32000,"message":"transaction gas price below minimum: gas tip cap 0, minimum needed 1"},"id":11,"jsonrpc":"2.0"}]

Scenario: GAS_PRICE_TOO_LOW-Dynamic  - Request: [{"jsonrpc":"2.0","id":11,"method":"eth_sendRawTransaction","params":["0x02f88983aa36a7208080826527943a059ac08a7a27e972dbdd00e4595742471137d880a46057361d0000000000000000000000000000000000000000000000000000000000000014c080a08f798e611b9706f766295e8215aaff777e1abd64881bb9504f9606deb9aa33e0a0712393dc388be91256bc8e9f3f95a3d6231f733871df17598a389c211a3794cb"]}]
Response: [{"error":{"code":-32000,"message":"transaction gas price below minimum: gas tip cap 0, minimum needed 1"},"id":11,"jsonrpc":"2.0"}]

Scenario: FEE_CAP_EXCEEDED  - Request: [{"jsonrpc":"2.0","id":12,"method":"eth_sendRawTransaction","params":["0xf88d20852e90edd00083f42400943a059ac08a7a27e972dbdd00e4595742471137d880a46057361d00000000000000000000000000000000000000000000000000000000000000148401546d72a0f64a09e148348119f3cd3403a1d0df68526ed8ffefaaf929999496780acb7984a017aa036022bb53e2a78941b15da203f4891f86ba0da2168a68eb8ace11ed0cf3"]}]
Response: [{"error":{"code":-32000,"message":"insufficient funds for gas * price + value: balance 1803807425478177344, tx cost 3200000000000000000, overshot 1396192574521822656"},"id":12,"jsonrpc":"2.0"}]

Scenario: GAS_TOO_LOW - Intrinsic gas too low  - Request: [{"jsonrpc":"2.0","id":13,"method":"eth_sendRawTransaction","params":["0x02f89283aa36a72084773594008502540be409824e20943a059ac08a7a27e972dbdd00e4595742471137d880a46057361d0000000000000000000000000000000000000000000000000000000000000014c080a0545bef298c010466d07ef78e11d823ac1a9df7afa6bf5afe8721a8cc4452bf2da0531796c0345a931a3b7aa45a2c10689656b8ee6792fc420b4d2148e9df2d77d9"]}]
Response: [{"error":{"code":-32000,"message":"intrinsic gas too low: gas 20000, minimum needed 21204"},"id":13,"jsonrpc":"2.0"}]

Scenario: OUT_OF_GAS - Transaction runs out of gas  - Request: [{"jsonrpc":"2.0","id":14,"method":"eth_sendRawTransaction","params":["0x02f89283aa36a72084773594008502540be4098252d4943a059ac08a7a27e972dbdd00e4595742471137d880a46057361d0000000000000000000000000000000000000000000000000000000000000014c001a034e7fbbe25c4b9dc1d42fd63c58a633783c721575ed73a038bcdac99508447b0a025bb0f1306c4d8f0b52e06115349559c730c70929c988cd413944f9db510b713"]}]
Response: [{"error":{"code":-32000,"message":"insufficient gas for floor data gas cost: gas 21204, minimum needed 21510"},"id":14,"jsonrpc":"2.0"}]

Scenario: TipAboveFeeCap - max priority fee per gas higher than max fee per gas  - Request: [{"jsonrpc":"2.0","id":17,"method":"eth_sendRawTransaction","params":["0x02f88d83aa36a720847735940005826527943a059ac08a7a27e972dbdd00e4595742471137d880a46057361d0000000000000000000000000000000000000000000000000000000000000014c080a0acaed582c2b1a50a72dc11e4135ccb48ccb755acdf8063994e2da83242510cb4a01fa629a22e10b9dd6d4f11fe64135bcf6e0f29fedd25e10e481538dcbc131b12"]}]
Response: [{"error":{"code":-32000,"message":"max priority fee per gas higher than max fee per gas"},"id":17,"jsonrpc":"2.0"}]

Scenario: INSUFFICIENT_FUNDS - Not enough funds for gas * price + value  - Request: [{"jsonrpc":"2.0","id":20,"method":"eth_sendRawTransaction","params":["0x02f89a83aa36a72084773594008502540be409826527943a059ac08a7a27e972dbdd00e4595742471137d88826e91fff8e3ab240a46057361d0000000000000000000000000000000000000000000000000000000000000014c080a0f80f285681a75afbe0363ee74fadf767a3ec3278f55645a6241ea1a8b3a14220a06f481c8fe936f818ab039b0810c6dc7807734ae734073782a320ef9ec1abf5e2"]}]
Response: [{"error":{"code":-32000,"message":"insufficient funds for gas * price + value: balance 1803807425478177344, tx cost 2804066375478410399, overshot 1000258950000233055"},"id":20,"jsonrpc":"2.0"}]

Scenario: REPLACEMENT_TRANSACTION_UNDERPRICED - Replacement without price bump  - Request: [{"jsonrpc":"2.0","id":21,"method":"eth_sendRawTransaction","params":["0x02f89283aa36a72084773594008502540be409826527943a059ac08a7a27e972dbdd00e4595742471137d880a46057361d0000000000000000000000000000000000000000000000000000000000000014c001a0f182b58625d6c17ede9f66dc7bfaff351f8bdc7f63d27700ea970167d368d8e3a019f62accb5b5b833ba30319c8468eb9ffd027884b213d1fa6542935b22b70270"]},{"jsonrpc":"2.0","id":21,"method":"eth_sendRawTransaction","params":["0x02f89483aa36a72084773594008502540be409826527943a059ac08a7a27e972dbdd00e4595742471137d88203e8a46057361d0000000000000000000000000000000000000000000000000000000000000014c080a00aa835b5961bb4df5ce1f2fd5bbfdbf12beb7b87a20aecd5ba36ac02db22d36ca00a2e1b937d61701a30d9717b50fb44217ced55965e08de6ea736c889ded4334f"]}]
Response: [{"id":21,"jsonrpc":"2.0","result":"0x93b8893a09bceb37d43892154583e3774ab17291e63b3804280d16416d423800"},{"error":{"code":-32000,"message":"replacement transaction underpriced"},"id":21,"jsonrpc":"2.0"}]

Scenario: ALREADY_KNOWN   - Request: [{"jsonrpc":"2.0","id":22,"method":"eth_sendRawTransaction","params":["0x02f89283aa36a72184773594008502540be409826527943a059ac08a7a27e972dbdd00e4595742471137d880a46057361d0000000000000000000000000000000000000000000000000000000000000014c080a0a848a2a10137b50e2461861d6e50d812a6d2e0374b31c4b9d62380525a603781a071a61f1d7ed1118db9c6075f89ca3272f74f40770583ccef0850d30b3a0200c1"]},{"jsonrpc":"2.0","id":22,"method":"eth_sendRawTransaction","params":["0x02f89283aa36a72184773594008502540be409826527943a059ac08a7a27e972dbdd00e4595742471137d880a46057361d0000000000000000000000000000000000000000000000000000000000000014c080a0a848a2a10137b50e2461861d6e50d812a6d2e0374b31c4b9d62380525a603781a071a61f1d7ed1118db9c6075f89ca3272f74f40770583ccef0850d30b3a0200c1"]}]
Response: [{"id":22,"jsonrpc":"2.0","result":"0x3ed9da57c3bfb8cc7365a6f0815639d950abb9889a5075ff335a44c63de88172"},{"error":{"code":-32000,"message":"already known"},"id":22,"jsonrpc":"2.0"}]

-------------------------------------------------------

