Testing Network: Sepolia
RPC URL: https://ethereum-sepolia-rpc.publicnode.com
=======================================================

Running Test Suite: Contract Interaction Tests
Description: 

[1/2] Running Test: eth_estimateGas
-------------------------------------------------------
Scenario: Proper request  - Request: {"jsonrpc":"2.0","id":1,"method":"eth_estimateGas","params":[{"data":"0x6057361d0002c6c8f4b6852b7fe72b4cbf8d304a8b4f8b1eec216b77e1284cc4","from":"0x51E3B84966c042C278dEb61564C106B6b82aF792","to":"0xfB1fa32605b1Cd1B91d1B80CCC7dde8EDab643D3"}]}
Response: [{"error":{"code":3,"data":"0x","message":"execution reverted"},"id":1,"jsonrpc":"2.0"}]
Scenario: Invalid contract  - Request: {"jsonrpc":"2.0","id":3,"method":"eth_estimateGas","params":[{"data":"0x6057361d0002c6c8f4b6852b7fe72b4cbf8d304a8b4f8b1eec216b77e1284cc4","from":"0x51E3B84966c042C278dEb61564C106B6b82aF792","to":"0x0baEAd25fe0346B76C73e84c083bb503c14309F1"}]}
Response: [{"id":3,"jsonrpc":"2.0","result":"0x5839"}]
Scenario: Invalid params types  - Request: {"jsonrpc":"2.0","id":4,"method":"eth_estimateGas","params":["latest"]}
Response: [{"error":{"code":-32602,"message":"invalid argument 0: json: cannot unmarshal string into Go value of type ethapi.TransactionArgs"},"id":4,"jsonrpc":"2.0"}]
Scenario: Incorrect method name  - Request: {"jsonrpc":"2.0","id":5,"method":"eth_wrongEstimateGas","params":[{"data":"0x6057361d0002c6c8f4b6852b7fe72b4cbf8d304a8b4f8b1eec216b77e1284cc4","from":"0x51E3B84966c042C278dEb61564C106B6b82aF792","to":"0xfB1fa32605b1Cd1B91d1B80CCC7dde8EDab643D3"}]}
Response: [{"error":{"code":-32601,"message":"the method eth_wrongEstimateGas does not exist/is not available"},"id":5,"jsonrpc":"2.0"}]
Scenario: Invalid 1st argument  - Request: {"jsonrpc":"2.0","id":6,"method":"eth_estimateGas","params":[{"to":"0x1234"}]}
Response: [{"error":{"code":-32602,"message":"invalid argument 0: hex string has length 4, want 40 for common.Address"},"id":6,"jsonrpc":"2.0"}]
Scenario: Invalid data field  - Request: {"jsonrpc":"2.0","id":7,"method":"eth_estimateGas","params":[{"data":"0x123invalid","to":"0x742d35Cc6634C0532925a3b844Bc454e4438f44e"}]}
Response: [{"error":{"code":-32602,"message":"invalid argument 0: json: cannot unmarshal invalid hex string into Go struct field TransactionArgs.data of type hexutil.Bytes"},"id":7,"jsonrpc":"2.0"}]
Scenario: Missing from field  - Request: {"jsonrpc":"2.0","id":8,"method":"eth_estimateGas","params":[{"data":"0x12345678","to":"0x742d35Cc6634C0532925a3b844Bc454e4438f44e"}]}
Response: [{"id":8,"jsonrpc":"2.0","result":"0x534e"}]
-------------------------------------------------------

[2/2] Running Test: eth_sendRawTransaction
-------------------------------------------------------
Scenario: Proper request  - Request: [{"jsonrpc":"2.0","id":1,"method":"eth_sendRawTransaction","params":["0x02f89483aa36a7820f7684773594008502540be41582652794fb1fa32605b1cd1b91d1b80ccc7dde8edab643d380a46057361d0000000000000000000000000000000000000000000000000000000000000014c080a053948f7c5382196006e672fadc159f083afdae349991e5947cbdb7975fadbb67a06474ff8779714561951349d7bc55937b529a3073e76427bcb2d2debe0a0dbbb8"]}]
Response: [{"id":1,"jsonrpc":"2.0","result":"0x51f2da9f945a36682ea640fa8d553e210c643a62c73a01e10024b71cf605dcc2"}]

Scenario: UseInvalidFunction  - Request: [{"jsonrpc":"2.0","id":3,"method":"eth_wrongSendRawTransaction","params":["0x02f89483aa36a7820f7784773594008502540be41582652794fb1fa32605b1cd1b91d1b80ccc7dde8edab643d380a4f53710930000000000000000000000000000000000000000000000000000000000000014c001a00c04e843181229bbae46ac21af30d8dabe267f07418c82bcff69ad241291fd88a0584d09ce9b247e7f8138240ec924bfb1060d0182b7324e5eb96ba529c38a0c2c"]}]
Response: [{"error":{"code":-32601,"message":"the method eth_wrongSendRawTransaction does not exist/is not available"},"id":3,"jsonrpc":"2.0"}]

Scenario: NONCE_TOO_LOW  - Request: [{"jsonrpc":"2.0","id":4,"method":"eth_sendRawTransaction","params":["0x02f89283aa36a78084773594008502540be41582652794fb1fa32605b1cd1b91d1b80ccc7dde8edab643d380a46057361d0000000000000000000000000000000000000000000000000000000000000014c080a0c2f066a235e0f35176708bc44487ce03ba65896606670202b1a349692023432da0684039250e2a92ad33197e287958d0b894016ebb7c6e722cd62a91d14713fd2b"]}]
Response: [{"error":{"code":-32000,"message":"nonce too low: next nonce 3959, tx nonce 0"},"id":4,"jsonrpc":"2.0"}]

Scenario: NONCE_TOO_HIGH  - Request: [{"jsonrpc":"2.0","id":5,"method":"eth_sendRawTransaction","params":["0x02f89483aa36a7820fdb84773594008502540be41582652794fb1fa32605b1cd1b91d1b80ccc7dde8edab643d380a46057361d0000000000000000000000000000000000000000000000000000000000000014c080a04d972ec162f1c59a5e838c84e0ef950907f0f55ef424e3e46e1da83d0a673678a02558945ffb374c7e19bae2102fd555aed15247cc874651da63a799e969fd4464"]}]
Response: [{"id":5,"jsonrpc":"2.0","result":"0xb99208a65f50fd0e2b941da29a80736593cdbbb0e35d74278c889299cb451f50"}]

Scenario: OVERSIZED_DATA  - Request: [{"jsonrpc":"2.0","id":9,"method":"eth_sendRawTransaction","params":["0x02fa10007383aa36a7820f7784773594008502540be41582652794fb1fa32605b1cd1b91d1b80ccc7dde8edab643d380ba10000000000000000000000000000000000000000000000000000000000000000000000000000000000000000000000000000000000000000000000000000000000000000000000000000000000000000000000000000000000000000000000000000000000000000000000000000000000000000000000000000000000000000000000000000000000000000000000000000000000000000000000000000000000000000000000000000000000000000000000000000000000000000000000000000000000000000000000000000000000000000000000000000000000000000000000000000000000000000000000000000000000000000000000000000000000000000000000000000000000000000000000000000000000000000000000000000000000000000000000000000000000000000000000000000000000000000000000000000000000000000000000000000000000000000000000000000000000000000000000000000000000000000000000000000000000000000000000000000000000000000000000000000000000000000000000000000000000000...
Response: {"code":-32601,"error":"Request body size limit reached. To remove restrictions, order a dedicated full node here: https://www.allnodes.com/eth/host","id":-1,"jsonrpc":"2.0"}
Error executing scenario 9 (OVERSIZED_DATA): failed to parse transaction hashes from response: failed to parse batch response: json: cannot unmarshal object into Go value of type []map[string]interface {}

Scenario: GAS_PRICE_TOO_LOW-Legacy  - Request: [{"jsonrpc":"2.0","id":11,"method":"eth_sendRawTransaction","params":["0xf889820f778082652794fb1fa32605b1cd1b91d1b80ccc7dde8edab643d380a46057361d00000000000000000000000000000000000000000000000000000000000000148401546d71a0ee4d7cafd6e861b2ebc204c3f54d9e6ccbf0823b89aed6ea2e480491893c3c16a0403312fe15ba3c7773e911d07a7e7bae69a8e2c2f7cd021f9b5af7b65e9ca807"]}]
Response: [{"error":{"code":-32000,"message":"transaction gas price below minimum: gas tip cap 0, minimum needed 1"},"id":11,"jsonrpc":"2.0"}]

Scenario: GAS_PRICE_TOO_LOW-Dynamic  - Request: [{"jsonrpc":"2.0","id":11,"method":"eth_sendRawTransaction","params":["0x02f88b83aa36a7820f77808082652794fb1fa32605b1cd1b91d1b80ccc7dde8edab643d380a46057361d0000000000000000000000000000000000000000000000000000000000000014c080a032a55541f443753a506b3d6a44e021c312bab4f7a73ccebe751d01e8fb60e314a0023855a921a2067098ea25798178e0ead08cae0a898c256d4b312512519349ba"]}]
Response: [{"error":{"code":-32000,"message":"transaction gas price below minimum: gas tip cap 0, minimum needed 1"},"id":11,"jsonrpc":"2.0"}]

Scenario: FEE_CAP_EXCEEDED  - Request: [{"jsonrpc":"2.0","id":12,"method":"eth_sendRawTransaction","params":["0xf88f820f77852e90edd00083f4240094fb1fa32605b1cd1b91d1b80ccc7dde8edab643d380a46057361d00000000000000000000000000000000000000000000000000000000000000148401546d71a0fef2e2293e05a7f82ff817aa5b88699555e690e362c3c7efc5c7f28b8484ee59a00ea22ea2d8572f7a3b5f9382eb0e30970db0672f36a4763862d41d62d4e3a60d"]}]
Response: [{"id":12,"jsonrpc":"2.0","result":"0xb01c1e55151dd236a74a36ff5397916ac8005c37c79594b8281e8d1ff93fd669"}]

Scenario: BLOCK_GAS_LIMIT_EXCEEDED  - Request: [{"jsonrpc":"2.0","id":10,"method":"eth_sendRawTransaction","params":["0x02f89683aa36a7820f7884773594008502540be4168402bde78094fb1fa32605b1cd1b91d1b80ccc7dde8edab643d380a46057361d0000000000000000000000000000000000000000000000000000000000000014c080a0300a2f0c968d88142eee356d58ed481727e9dee6df5498560bb80115e2bcb7c8a004ec43ca9661d2a7162c8d314001de05c21ba668e7f707927b3e30520627c066"]}]
Response: [{"error":{"code":-32000,"message":"transaction gas limit too high (cap: 16777216, tx: 46000000)"},"id":10,"jsonrpc":"2.0"}]

Scenario: TRANSACTION_GAS_LIMIT_EXCEEDED: GasLimitTooHigh  - Request: [{"jsonrpc":"2.0","id":10,"method":"eth_sendRawTransaction","params":["0x02f89683aa36a7820f7884773594008502540be415840100000194fb1fa32605b1cd1b91d1b80ccc7dde8edab643d380a46057361d0000000000000000000000000000000000000000000000000000000000000014c080a01866c2cd88c87bd5b0c595bc11d46e0fdd0ad54565be1ba47dd176badd8cf2cda05ea09a95fbf2df940d29883e445cc8d3322d60b2be01bb8d3d564c6261afa6ed"]}]
Response: [{"error":{"code":-32000,"message":"transaction gas limit too high (cap: 16777216, tx: 16777217)"},"id":10,"jsonrpc":"2.0"}]

Scenario: GAS_TOO_LOW - Intrinsic gas too low  - Request: [{"jsonrpc":"2.0","id":13,"method":"eth_sendRawTransaction","params":["0x02f89483aa36a7820f7884773594008502540be415824e2094fb1fa32605b1cd1b91d1b80ccc7dde8edab643d380a46057361d0000000000000000000000000000000000000000000000000000000000000014c080a07b93d979f9d494caf593a8c6e4ee20550272a7796fd4f362e58efc87ac5c50c2a00495f4ec048b1ebcea22cbf3b602cd70d8ac5b1d9242ad68dec8edd40a28be64"]}]
Response: [{"error":{"code":-32000,"message":"intrinsic gas too low: gas 20000, minimum needed 21204"},"id":13,"jsonrpc":"2.0"}]

Scenario: OUT_OF_GAS - Transaction runs out of gas  - Request: [{"jsonrpc":"2.0","id":14,"method":"eth_sendRawTransaction","params":["0x02f89483aa36a7820f7884773594008502540be4158252d494fb1fa32605b1cd1b91d1b80ccc7dde8edab643d380a46057361d0000000000000000000000000000000000000000000000000000000000000014c080a05ff7dcdb80604ba0ad06ca1ecf4065e8a20c4ad234436a6bbe71f18d87449384a06ba6655306fdd8a8d4534da7350c981ec962307f0b0f7d0506ea77b29c7b5e8c"]}]
Response: [{"error":{"code":-32000,"message":"insufficient gas for floor data gas cost: gas 21204, minimum needed 21510"},"id":14,"jsonrpc":"2.0"}]

Scenario: TipAboveFeeCap - max priority fee per gas higher than max fee per gas  - Request: [{"jsonrpc":"2.0","id":17,"method":"eth_sendRawTransaction","params":["0x02f88f83aa36a7820f7884773594000a82652794fb1fa32605b1cd1b91d1b80ccc7dde8edab643d380a46057361d0000000000000000000000000000000000000000000000000000000000000014c080a02f0cbc1d9440ccea8f611d2a804e116d91df3af1ca72df4a2c5c0172223b0a57a02c3cae942aeee253a83adea9ade0c60b74e1dff5352155ebb858b0fbef9e52c3"]}]
Response: [{"error":{"code":-32000,"message":"max priority fee per gas higher than max fee per gas"},"id":17,"jsonrpc":"2.0"}]

Scenario: INVALID_OPCODE  - Request: [{"jsonrpc":"2.0","id":20,"method":"eth_sendRawTransaction","params":["0x02f87483aa36a7820f7884773594008502540be41582652794bedbedeb6362681ad8d1f87fc600418db3a205218084b9d1e5aac001a01cea22c84b78360c38455bd6c034eea82440a7b15c66bdeb986a92b7ac29943ba02cd6c9af15e436f0043d8f2b4ee782a0497965764c065cbe7ead46d1e737a78f"]}]
Response: [{"id":20,"jsonrpc":"2.0","result":"0x41a7dc7f635e7fc29e245fbd55774ffe26ab5af1c66a06a2b30120881033508e"}], PreSend Error: [{"jsonrpc":"2.0","id":1,"error":{"code":-32000,"message":"invalid opcode: INVALID"}}]


Scenario: REVERT_OPCODE  - Request: [{"jsonrpc":"2.0","id":20,"method":"eth_sendRawTransaction","params":["0x02f87483aa36a7820f7984773594008502540be41582652794bedbedeb6362681ad8d1f87fc600418db3a2052180846d3d1416c001a05c435aa27d29877266831ed608341e7001dbecf2b427d71d2f40dcc76d5ed54aa0703fe8992b8991ccb72dd707f85230e2fe1bd58e10c0ea3c4cac70eb5dc3c130"]}]
Response: [{"id":20,"jsonrpc":"2.0","result":"0x2ca38acda81674bf91fa5e4b266726cd88aa45d1c6c47c5b884a022d7c1f66ab"}], PreSend Error: [{"jsonrpc":"2.0","id":1,"error":{"code":3,"message":"execution reverted","data":"0x"}}]


Scenario: INSUFFICIENT_FUNDS - Not enough funds for gas * price + value  - Request: [{"jsonrpc":"2.0","id":20,"method":"eth_sendRawTransaction","params":["0x02f89d83aa36a7820f7a84773594008502540be41582652794fb1fa32605b1cd1b91d1b80ccc7dde8edab643d38911f63e5ff645cdbd33a46057361d0000000000000000000000000000000000000000000000000000000000000014c001a08aa3112775bd5ca73700b495995883a409412e7ed20b4a5ba252784b86abec36a0502c6196cb189d6f48d0c5088d6702f97005696c2f6f6d7db5d7b3aa7bb1bce1"]}]
Response: [{"error":{"code":-32000,"message":"insufficient funds for gas * price + value: balance 330338374346286415155, tx cost 331338633296286958950, overshot 1000258950000543795"},"id":20,"jsonrpc":"2.0"}]

Scenario: REPLACEMENT_TRANSACTION_UNDERPRICED - Replacement without price bump  - Request: [{"jsonrpc":"2.0","id":21,"method":"eth_sendRawTransaction","params":["0x02f89483aa36a7820f7a84773594008502540be41582652794fb1fa32605b1cd1b91d1b80ccc7dde8edab643d380a46057361d0000000000000000000000000000000000000000000000000000000000000014c001a09e1e322efc7a98c2f2bc7c639a675ea6fd35892668df57cc16ad4e37327bc895a05980010967f6ed6682762c812ec91d318d4877c64e23011fc7961505637422a6"]},{"jsonrpc":"2.0","id":21,"method":"eth_sendRawTransaction","params":["0x02f89683aa36a7820f7a84773594008502540be41582652794fb1fa32605b1cd1b91d1b80ccc7dde8edab643d38203e8a46057361d0000000000000000000000000000000000000000000000000000000000000014c080a0f000f693f4e03a9800e5a3293ff079b22fec53b2671b24a5430fe0dbe4ef9df7a01dd26dff1438b451bd921ef7147bca1caef902639a6a0c95587bc7a8e16992db"]}]
Response: [{"id":21,"jsonrpc":"2.0","result":"0xa907312b9fb5833b24ebc6ac9f71f76e58e93a33d1203d866517c2bebccce451"},{"error":{"code":-32000,"message":"replacement transaction underpriced"},"id":21,"jsonrpc":"2.0"}]

Scenario: ALREADY_KNOWN   - Request: [{"jsonrpc":"2.0","id":22,"method":"eth_sendRawTransaction","params":["0x02f89483aa36a7820f7b84773594008502540be41582652794fb1fa32605b1cd1b91d1b80ccc7dde8edab643d380a46057361d0000000000000000000000000000000000000000000000000000000000000014c080a04f9e2694a3bba15625f2f53969f1c1235dc4407022a49a1d0b639bc9739d042aa0635a37ba6cd24457036a08ee5fd47c068bbf1f4ac435930363b738cf0dffdf8b"]},{"jsonrpc":"2.0","id":22,"method":"eth_sendRawTransaction","params":["0x02f89483aa36a7820f7b84773594008502540be41582652794fb1fa32605b1cd1b91d1b80ccc7dde8edab643d380a46057361d0000000000000000000000000000000000000000000000000000000000000014c080a04f9e2694a3bba15625f2f53969f1c1235dc4407022a49a1d0b639bc9739d042aa0635a37ba6cd24457036a08ee5fd47c068bbf1f4ac435930363b738cf0dffdf8b"]}]
Response: [{"id":22,"jsonrpc":"2.0","result":"0x97930db707d81610c3212822d4ebb7846877b3caadc159915c48e005e941f49c"},{"error":{"code":-32000,"message":"already known"},"id":22,"jsonrpc":"2.0"}]

-------------------------------------------------------

